:060000000A128A110C280F
:10000800FE00030EF0000A08F1000A168A11D52D29
:100018000A128A110F288313C330FD001530FE0021
:100028003230FF00A03084000A168A11E9240A122F
:100038008A110A168A11A5240A128A11ED000A16D5
:100048008A11A6240A128A11EE000A128A11FF27C1
:100058000A128A11FB0083160313C301C401C501E8
:10006800C601C701C801C901CA0183120313E70108
:10007800E801E901EA01EB01EC01F901FA01830168
:100088000A128A152C2B83120313E4000A128A150C
:1000980015200A128A114430831203136D06031DBA
:1000A800562857281A2A0A168A11C1240A128A11B0
:1000B800373083120313A0009130A1008030A200D2
:1000C8000A168A11A2250A128A11831203136A08D2
:1000D800D8005807A03E840083130008A000840AB3
:1000E80000088403A1008630A2000A168A11A225FE
:1000F8000A128A114F3083120313A0009130A10015
:10010800C030A2000A168A11A2250A128A11C63026
:10011800F8000A30F2000030F300831203136B0872
:10012800D800D9015808F4005908F5000A168A11B0
:1001380025270A128A117208303E0A128A150020F1
:100148000A128A11C730F8000A30F2000030F300B2
:10015800831203136B08D800D9015808F400590812
:10016800F5000A168A11CE260A128A117208303E44
:100178000A128A1500200A128A11C830F8003A308B
:100188000A128A1500200A128A11C930F8000A30AA
:10019800F2000030F300831203136C08D800D90171
:1001A8005808F4005908F5000A168A1125270A127A
:1001B8008A117208303E0A128A1500200A128A1122
:1001C800CA30F8000A30F2000030F300831203133B
:1001D8006C08D800D9015808F4005908F5000A1627
:1001E8008A11CE260A128A117208303E0A128A151E
:1001F80000200A128A11FF3083120313ED003330F6
:1002080083120313DA00BB30D900DF30D800D80BD3
:100218000B29D90B0B29DA0B0B290A168A11C124D1
:100228000A128A11063083120313A0009130A1002C
:100238008030A2000A168A11A2250A128A114F30AC
:1002480083120313A0009130A100C030A2000A1647
:100258008A11A2250A128A11843083120313A0007E
:100268009030A1009030A2000A168A11A2250A1225
:100278008A119C3083120313A0009030A100D03063
:10028800A2000A168A11A2250A128A113C30F2002D
:10029800831203136B080A168A11D2240A128A11D0
:1002A800831203136C07E700E8006808D800D90137
:1002B800DA01DB015B08F5005A08F4005908F3007D
:1002C8005808F20001300A128A1576220A128A1199
:1002D800750883120313B1007408B0007308AF00E7
:1002E8007208AE003E30AD00EB30AC008530AB009C
:1002F8001F30AA000A128A1119240A128A118312BD
:1003080003132D08C7002C08C6002B08C5002A08AF
:10031800C4000A168A118A270A128A118312031343
:100328004408F9006808D800D901DA01DB015B0844
:10033800F5005A08F4005908F3005808F200013093
:100348000A128A1576220A128A1175088312031373
:10035800B1007408B0007308AF007208AE003D30F9
:10036800AD00F530AC00C230AB008F30AA000A12E5
:100378008A1119240A128A11831203132D08C7003F
:100388002C08C6002B08C5002A08C4000A168A11C2
:100398008A270A128A118312031344088316031347
:1003A800CA00831203136808D800D901DA01DB01F7
:1003B8005B08F5005A08F4005908F3005808F200E1
:1003C80001300A128A1576220A128A1175088312D8
:1003D8000313B1007408B0007308AF007208AE00D0
:1003E8003E30AD00D730AC000A30AB003D30AA003B
:1003F8000A128A1119240A128A11831203132D086A
:10040800C7002C08C6002B08C5002A08C4000A1615
:100418008A118A270A128A11831203134408831641
:100428000313C90083120313121507151F3064063E
:10043800031D1F2A202A242A121107115530EE0005
:100448003C30F2006B080A168A11D2240A128A116B
:10045800831203136C07E700E80008306A020318E8
:10046800362A372A982A6708D800D9015908DB00A4
:1004780079085802DA00031CDB035B08803A803CE9
:10048800031D482A5A086802031C4B2A4C2A5A2A78
:10049800B83083120313A0009030A1008A30A20064
:1004A8000A168A11A2250A128A115D2B83120313D8
:1004B8006708D800D9015908DB0079085802DA0022
:1004C800031CDB035B08DD00831603134908831252
:1004D80003135A02DC00031CDD035D08803A803CEC
:1004E800031D782A5C086802031C7B2A7C2A8A2A56
:1004F8003D3083120313A0009130A1008A30A2007E
:100508000A168A11A2250A128A115D2B5930831204
:100518000313A0009130A1008A30A2000A168A11A4
:10052800A2250A128A115D2B08306A06031D9D2A2E
:100538009E2A402B6808D800D901DA01DB015B0844
:10054800F5005A08F4005908F3005808F200013081
:100558000A128A1576220A128A1175088312031361
:10056800CF007408CE007308CD007208CC0067086D
:10057800DC00DD01DE01DF015F08F5005E08F40044
:100588005D08F3005C08F20001300A128A15762231
:100598000A128A11750883120313CB007408CA0063
:1005A8007308C9007208C8006708E000E101E201A9
:1005B800E3016308F5006208F4006108F3006008CD
:1005C800F20001300A128A1576220A128A11750879
:1005D80083120313B1007408B0007308AF007208E7
:1005E800AE003E30AD00CC30AC00CC30AB00CD30EE
:1005F800AA000A128A1119240A128A1183120313F3
:100608002D08C7002C08C6002B08C5002A08C400FE
:100618000A168A1155250A128A11831203134708EC
:10062800D3004608D2004508D1004408D0000A1279
:100638008A115B270A128A11031C232B242B322BC5
:100648003D3083120313A0009130A1008A30A2002C
:100658000A168A11A2250A128A115D2B59308312B3
:100668000313A0009130A1008A30A2000A168A1153
:10067800A2250A128A115D2B09306A06031D452B33
:10068800462B522B5930A0009130A1008A30A2008D
:100698000A168A11A2250A128A115D2BB830A00009
:1006A8009030A1008030A2000A168A11A2250A12F1
:1006B8008A11C630F8000A30F2000030F3008312C5
:1006C80003136B08D800D9015808F4005908F5003D
:1006D8000A168A1125270A128A117208303E0A1250
:1006E8008A1500200A128A11C730F8000A30F20071
:1006F8000030F300831203136B08D800D90158089F
:10070800F4005908F5000A168A11CE260A128A1131
:100718007208303E0A128A1500200A128A11C8305F
:10072800F8003A300A128A1500200A128A11C930D4
:10073800F8000A30F2000030F300831203136C084B
:10074800D800D9015808F4005908F5000A168A118A
:1007580025270A128A117208303E0A128A150020CB
:100768000A128A11CA30F8000A30F2000030F30089
:10077800831203136C08D800D9015808F4005908EB
:10078800F5000A168A11CE260A128A117208303E1E
:100798000A128A1500200A128A11831203136B08A1
:1007A800031DD72BD82B182C6C08031DDC2BDD2B35
:1007B800182C0A168A11C1240A128A1183120313EB
:1007C800071187140030A0009030A1008030A200EB
:1007D8000A168A11A2250A128A11323083120313CB
:1007E800A0009030A100C030A2000A168A11A225EC
:1007F8000A128A117F3083120313DA00D430D90029
:100808003130D800D80B062CD90B062CDA0B062C65
:100818008312031387100130EE001130ED000A1621
:100828008A11C1240A128A110800831203132D08A1
:10083800B7008030B7052D08B2003207BD00AC1FE5
:10084800262C272C282C3D143D0803192C2C2D2C44
:100858003C2C3D0A031D312C322C3A2C0030AD00C3
:100868000030AC000030AB000030AA00AC17442CBC
:100878000030AD000030AC000030AB000030AA0002
:1008880031088039B7063108B2003207B800B01F06
:100898004E2C4F2C502C381438080319542C552C36
:1008A800642C380A031D592C5A2C622C0030B100D4
:1008B8000030B0000030AF000030AE00B0176C2C34
:1008C8000030B1000030B0000030AF000030AE00A2
:1008D80038080319702C712C762C3D08031D752CD3
:1008E800762C7F2C0030AD000030AC000030AB001F
:1008F8000030AA005A2F2A08F20030080A168A1176
:1009080079250A128A11730883120313C300720827
:10091800C2004208B200B301B401B5013508BC00F9
:100928003408BB003308BA003208B9004308B200E3
:10093800B301B401B5013508C1003408C00033085B
:10094800BF003208BE002B08F2002F080A168A11D1
:1009580079250A128A11730883120313C3007208D7
:10096800C2004208B200B301B401B5013208B907A8
:10097800330803110318013E0319C32CBA073408BE
:1009880003110318013E0319CA2CBB0735080311CC
:100998000318013E0319D12CBC074308B200B30168
:1009A800B401B5013208BE07330803110318013E2C
:1009B8000319DF2CBF07340803110318013E03197C
:1009C800E62CC007350803110318013E0319ED2C66
:1009D800C1072C08F2002E080A168A1179250A1276
:1009E8008A11730883120313C3007208C2004208F5
:1009F800B200B301B401B5013208B90733080311D5
:100A08000318013E0319092DBA0734080311031806
:100A1800013E0319102DBB07350803110318013EC9
:100A28000319172DBC074308B200B301B401B5017F
:100A38003208BE07330803110318013E0319252D98
:100A4800BF07340803110318013E03192C2DC007F2
:100A5800350803110318013E0319332DC107083067
:100A6800B2000310B90DBA0DBB0DBC0DB20B352D7C
:100A78002B08F2002E080A168A1179250A128A1103
:100A8800730883120313C3007208C2004208B2003D
:100A98004308B300B401B5013208B907330803119C
:100AA8000318013E0319592DBA0734080311031816
:100AB800013E0319602DBB07350803110318013ED9
:100AC8000319672DBC072A08F2002F080A168A1195
:100AD80079250A128A11730883120313C300720856
:100AE800C2004208B2004308B300B401B50132089D
:100AF800B907330803110318013E0319842DBA07F7
:100B0800340803110318013E03198B2DBB07350860
:100B180003110318013E0319922DBC070830B200D7
:100B28000310B90DBA0DBB0DBC0DB20B942D2A08DC
:100B3800F2002E080A168A1179250A128A117308FA
:100B480083120313C3007208C2004208B2004308AC
:100B5800B300B401B5013208B9073308031103180B
:100B6800013E0319B82DBA07340803110318013ED2
:100B78000319BF2DBB07350803110318013E0319DC
:100B8800C62DBC072B08F20030080A168A117925F1
:100B98000A128A11730883120313C3007208C20071
:100BA8004208B2004308B300B401B5013208BE07D9
:100BB800330803110318013E0319E32DBF07340856
:100BC80003110318013E0319EA2DC0073508031164
:100BD8000318013E0319F12DC1072C08F2002F0854
:100BE8000A168A1179250A128A11730883120313C7
:100BF800C3007208C2004208B2004308B300B4013F
:100C0800B5013208BE07330803110318013E031962
:100C18000E2EBF07340803110318013E0319152EC1
:100C2800C007350803110318013E03191C2EC1071C
:100C38002C08F20030080A168A1179250A128A113E
:100C4800730883120313C3007208C2004208B2007B
:100C58004308B300B401B50108300310B20DB30D59
:100C6800B40DB50DFF3E031D312E3208BE07330803
:100C780003110318013E0319422EBF07340803115C
:100C88000318013E0319492EC0073508031103183C
:100C9800013E0319502EC1073908B2003A08B300C3
:100CA8003B08B4003C08B50018300310B50CB40C70
:100CB800B30CB20CFF3E031D592E3208BE07330891
:100CC80003110318013E03196A2EBF0734080311E4
:100CD8000318013E0319712EC007350803110318C4
:100CE800013E0319782EC1070830B2000310B90D70
:100CF800BA0DBB0DBC0DB20B7A2E3D083807B200F9
:100D0800B301B30D3208823EC20033080318013E16
:100D1800FF3EC300AC2E0130B2000310BE0DBF0D64
:100D2800C00DC10DB20B912EBC1F9B2E9C2E9D2E6B
:100D38003E140130B2000310B90DBA0DBB0DBC0D45
:100D4800B20B9F2EFF30C2070318C30AFF30C30738
:100D5800C01FAF2EB02E8F2EB801BC1FB42EB52EDB
:100D6800D12EFF303905B200FF303A05B300FF300D
:100D78003B05B4007F303C05B50035083404330426
:100D880032040319C82EC92ECC2E0130B800D12E3A
:100D98003E1CCF2ED02ED12EC92E38080319D52EA1
:100DA800D62E072F0130BE07003003180130BF07C9
:100DB800003003180130C007003003180130C107A4
:100DC800411CE72EE82E072F3E08B2003F08B3006B
:100DD8004008B4004108B5000130B600350DB50C27
:100DE800B40CB30CB20CB60BF22E3508C1003408A3
:100DF800C0003308BF003208BE000130C207031824
:100E0800C30A0030C3074308803AFF0080307F02DE
:100E1800031D102FFF304202031C132F142F1F2F06
:100E28007F3083120313C1008030C0000030BF0040
:100E38000030BE00502F831203134308803AFF008E
:100E480080307F02031D2A2F0130420203182D2F04
:100E58002E2F3A2F003083120313C1000030C00038
:100E68000030BF000030BE00B701502F83120313BB
:100E78004208BD00FF30BE05FF30BF057F30C0050A
:100E88000030C1053D1C492F4A2F4B2FC0173D0884
:100E9800B2000310320CC1003708C1044108AD008C
:100EA8004008AC003F08AB003E08AA00080000302C
:100EB800831203134C05D40000304D05D500803053
:100EC8004E05D6007F304F05D70057085604550405
:100ED8005404031D702F712F792F0030CF0000307C
:100EE800CE000030CD000030CC0000305005D400DA
:100EF80000305105D50080305205D6007F305305AB
:100F0800D7005708560455045404031D8C2F8D2F01
:100F1800952F0030D3000030D2000030D1000030CF
:100F2800D000CF1F982F992FBD2F0030D40000304C
:100F3800D5000030D6008030D7004C08D4024D08C8
:100F4800031C4D0FA82FA92FD5024E08031C4E0FC6
:100F5800AE2FAF2FD6024F08031C4F0FB42FB52F5B
:100F6800D7025708CF005608CE005508CD005408C0
:100F7800CC00D31FC02FC12FE52F0030D400003084
:100F8800D5000030D6008030D7005008D402510870
:100F9800031C510FD02FD12FD5025208031C520F1A
:100FA800D62FD72FD6025308031C530FDC2FDD2F63
:100FB800D7025708D3005608D2005508D100540864
:100FC800D0008030CF068030D30653084F02031D6F
:100FD800F72F52084E02031DF72F51084D02031D2B
:100FE800F72F50084C020318FA2FFB2FFD2F031080
:100FF800FE2F03140800013483120313A400F20126
:1010080078080A168A1112250A128A15F201F20ABC
:101018008312031324080A168A1112250A128A1544
:1010280008008312031306181A281B288C28071196
:10103800121187140A168A11C1240A128A156A30F5
:1010480083120313A0009030A1008030A2000A167A
:101058008A11A2250A128A15413083120313A000AF
:101068009030A100C030A2000A168A11A2250A12E7
:101078008A15633083120313A0009130A1009030C9
:10108800A2000A168A11A2250A128A1583120313CE
:10109800061C4F2850284A280715121587100A16CB
:1010A8008A11C1240A128A15063083120313A0007C
:1010B8009130A1008030A2000A168A11A2250A12D6
:1010C8008A154F3083120313A0009130A100C0305D
:1010D800A2000A168A11A2250A128A1584308312E0
:1010E8000313A0009030A1009030A2000A168A11C4
:1010F800A2250A128A159C3083120313A00090308F
:10110800A100D030A2000A168A11A2250A128A1557
:10111800080083120313A70011306D06031D9528DC
:1011280096289F280A168A11C1240A128A15FF30A8
:1011380083120313ED0037302706031DA428A528C2
:10114800B3280130EA070C306A06031DAC28AD2825
:10115800AE28EA010A168A11C1240A128A1511302A
:1011680083120313A0009030A1008030A2000A1659
:101178008A11A2250A128A15C030F8002A300A12EC
:101188008A1500200A128A15831203136A08A5001B
:101198002507A03E840083130008A000840A0008E5
:1011A8008403A100C130A2000A168A11A2250A12DE
:1011B8008A150C30F2000030F300831203136A081A
:1011C800013EF400003003180130F5000A168A11B8
:1011D800CE260A128A15720883120313A500250762
:1011E800A03E840083130008A000840A000884033A
:1011F800A1009130A2000A168A11A2250A128A15A6
:101208000C30F2000030F300831203136A08023E28
:10121800F400003003180130F5000A168A11CE26B2
:101228000A128A15720883120313A5002507A03E27
:10123800840083130008A000840A00088403A10026
:10124800D130A2000A168A11A2250A128A150800AE
:1012580083120313A801A9012808803EF800FF3073
:101268000A128A1500200A128A1503308312031302
:10127800A7008A30A6005530A500A50B4129A60B6A
:101288004129A70B4129013083120313A80703182A
:10129800A90A0030A90700302902103003192802D2
:1012A800031C5729582930298130F800FF300A12C9
:1012B8008A1500200A128A158230F800FF300A12B7
:1012C8008A1500200A128A150D3083120313A7000D
:1012D800AF30A600B530A500A50B7029A60B702964
:1012E800A70B70297729903083120313A000903040
:1012F800A100C130A2000A168A11A2250A128A1575
:10130800223083120313A0009030A1009130A20074
:101318000A168A11A2250A128A1583120313AA0132
:10132800AB012A08D03EF800FF300A128A150020C7
:101338000A128A15033083120313A7008A30A60005
:101348005530A500A50BA629A60BA629A70BA629EB
:10135800013083120313AA070318AB0A0030AB0746
:1013680000302B02103003192A02031CBC29BD29A6
:101378009529333083120313A700BB30A600DF3052
:10138800A500A50BC529A60BC529A70BC5290800CB
:1013980083120313A70022306D06031DD429D52913
:1013A800DE290A168A11C1240A128A15FF3083120F
:1013B8000313ED0037302706031DE329E429FD292F
:1013C8000530F2000030F3006908013EF4000030F7
:1013D80003180130F5000A168A11CE260A128A155A
:1013E800720883120313E9000A168A11C1240A122B
:1013F8008A155D3083120313A0009030A10080305D
:10140800A2000A168A11A2250A128A15C030F8000D
:101418002A300A128A1500200A128A158312031329
:101428006908A5002507B83E840083130008A000BA
:10143800840A00088403A100C230A2000A168A1197
:10144800A2250A128A150530F2000030F300831233
:1014580003136908013EF400003003180130F50059
:101468000A168A11CE260A128A15720883120313E5
:10147800A5002507B83E840083130008A000840A4D
:1014880000088403A1009230A2000A168A11A2253E
:101498000A128A150530F2000030F3008312031394
:1014A8006908023EF400003003180130F5000A16FE
:1014B8008A11CE260A128A15720883120313A50010
:1014C8002507B83E840083130008A000840A00089A
:1014D8008403A100D230A2000A168A11A2250A129A
:1014E8008A15080083120313A400240803197D2A0F
:1014F8007E2A922AF51F812A822A922A7209A60038
:101508007309A7007409A8007509A900A60A031998
:10151800A70A0319A80A0319A90A9A2A7508A9008B
:101528007408A8007308A7007208A6007508740458
:1015380073047204031DA12AA22AAB2A0030F50005
:101548000030F4000030F3000030F2002B2B96300E
:10155800A500B92A0130A50701300310A90CA80C71
:10156800A70CA60CFF3E031DB12AFE302905031D5A
:10157800BE2ABF2AAE2AD92A0130A5070130A607FC
:10158800003003180130A707003003180130A807FE
:10159800003003180130A90701300310A90CA80C6A
:1015A800A70CA60CFF3E031DD12AFF302905031DF9
:1015B800DE2ADF2AC02AEB2A0130A5020130A0006A
:1015C8000310A60DA70DA80DA90DA00BE42AA81BB2
:1015D800EE2AEF2AF52A023025020318F42AF52A02
:1015E800E02A2518F82AF92A012BFF30A605FF3032
:1015F800A7057F30A805FF30A9050310A50C25080D
:10160800A000A101A201A30118300310A00DA10D93
:10161800A20DA30DFF3E031D092B2008A6042108D7
:10162800A7042208A8042308A904240803191D2BC9
:101638001E2B232BF51F212B222B232BA91729081F
:10164800F5002808F4002708F3002608F20008002F
:101658000A168A11F8240A128A156D2B2C30831663
:101668000313CB000130CC000130CB020030031C47
:10167800CC03CC024B0A031D452B4C0A031D452BFA
:10168800462B382B4F3083120313A0009030A10053
:101698008130A2000A168A11A2250A128A1518306A
:1016A80083120313A0009130A100C530A2000A16CE
:1016B8008A11A2250A128A15223083120313A00068
:1016C8009030A1009130A2000A168A11A2250A12B0
:1016D8008A1501300A168A1122260A128A152F3A0B
:1016E800031D772B782B322B0A168A11C1240A1274
:1016F8008A150A128A152C210A128A1501300A162F
:101708008A1122260A128A1583160313CF00B830CD
:10171800CD000B30CE000130CD020030031CCE03CB
:10172800CE024D0A031D9C2B4E0A031D9C2B9D2B9C
:101738008F2B99304F06031DA22BA32BBB2B831293
:1017480003136E03031DA92BAA2BBB2B0D30831289
:101758000313E600FB30E500E50BB02BE60BB02BDE
:10176800023083120313EE001130ED004C2C993037
:10177800831603134F06031DC22BC32BFF2B023006
:10178800831203136E06031DCA2BCB2BFF2B0330CA
:10179800EE000A168A11C1240A128A1577308312BC
:1017A8000313A0009030A1008030A2000A168A110D
:1017B800A2250A128A15D33083120313A000903091
:1017C800A100C030A2000A168A11A2250A128A15A1
:1017D800FC3083120313A0009030A1009030A200C7
:1017E8000A168A11A2250A128A150A128A15602475
:1017F8000A128A154C2C2F30831603134F06031D2B
:10180800062C072C142C5530831203136E06031D67
:101818000E2C0F2C142C0430EE00121507154C2C2E
:101828004C2C831603134F080A128A158D200A12AE
:101838008A15822B831603134F080A128A15CC21A6
:101848000A128A15822B2F30831603134F06031DA5
:101858002E2C2F2C362C043083120313EE00443028
:10186800ED00822B1F304F06031D3B2C3C2C5C2CBB
:10187800013083120313EE001130ED00822B831622
:1018880003134F080A128A1147200A128A15822B5D
:10189800831203136E08013A0319152C033A03192E
:1018A8001E2C013A0319272C073A0319432C822BC3
:1018B800822B0A128A110C287F2DEB012130EC00B3
:1018C800A72DEB012930EC00A72D2D30EC00A72D1A
:1018D8006908003A0319652C013A0319612C033A87
:1018E8000319652C013A0319692C073A0319692C65
:1018F800A72DEB012B30EC00A72DEB013230EC00CB
:10190800A72DEB013930EC00A72D6908003A03191F
:10191800812C013A03197D2C033A0319812C013AD1
:101928000319852C073A0319852CA72DEB011A30CA
:10193800EC00A72DEB011F30EC00A72D6908003A39
:1019480003199A2C013A03199A2C033A03199A2C71
:10195800013A03199E2C073A03199E2CA72D013032
:10196800EB001030EC00A72D6908003A0319B32CDE
:10197800013A0319B32C033A0319B32C013A03199A
:10198800B32C073A0319B32CA72D0130EB002430F0
:10199800EC00A72D6908003A0319C92C013A03196C
:1019A800C92C033A0319C92C013A0319C92C073A5F
:1019B8000319C92CA72DEB011F30EC00EB012430D3
:1019C800EC00A72D6908003A0319DF2C013A031926
:1019D800DF2C033A0319DF2C013A0319E22C073AEA
:1019E8000319E22CA72DEB011D30EC00A72D690887
:1019F800003A0319F72C013A0319F72C033A031993
:101A0800F72C013A0319F72C073A0319F72CA72DDD
:101A1800EB013530EC00EB012E30EC000130EB002F
:101A2800EC01A72D6908003A03190C2D013A031996
:101A38000F2D033A03190C2D013A0319122D073AF9
:101A48000319122DA72DEB011230EC00EB01143015
:101A5800EC00A72D6908003A03192A2D013A031949
:101A6800272D033A03192A2D013A03192A2D073A7B
:101A780003192A2DA72DEB010630EC00A72D6908C4
:101A8800003A03193F2D013A03193F2D033A031970
:101A98003F2D013A03193F2D073A03193F2DA72D72
:101AA800EB011530EC00A72DEB011030EC00A72D51
:101AB8006908003A0319542D013A0319582D033ABD
:101AC8000319542D013A03199A2C073A03199A2C31
:101AD800A72D812C6908003A03196D2D013A0319C5
:101AE800812C033A0319812C013A0319812C073AF6
:101AF8000319812CA72D831203136A08003A0319CE
:101B08006C2C013A0319892C033A0319A22C013AC7
:101B18000319B82C073A0319CE2C013A0319E62CFD
:101B2800033A0319FB2C013A0319162D0F3A03192E
:101B38002E2D013A0319432D033A03195C2D013A5E
:101B480003196E2DA72D0800831203132308F20032
:101B58008030F2052308A8002807F400A21FB52D3D
:101B6800B62DB72D741474080319BB2DBC2DCC2DBC
:101B7800740A031DC02DC12DC92D0030A3000030EB
:101B8800A2000030A1000030A000A217A301D42DAC
:101B98000030A3000030A2000030A1000030A000F7
:101BA8002708F3008030F305730872060319DD2D4A
:101BB800DE2DDF2D72172708A8002807F300A61FBF
:101BC800E62DE72DE82D731473080319EC2DED2D80
:101BD800FD2D730A031DF12DF22DFA2D0030A700FB
:101BE8000030A6000030A5000030A400A617A70109
:101BF800052E0030A7000030A6000030A5000030F8
:101C0800A4007408730203180A2E0B2E2F2E721FBD
:101C18000E2E0F2E112E8030F2067408F500730870
:101C2800F4007508F3002008F5002408A0007508E2
:101C3800A4002108F5002508A1007508A5002208C0
:101C4800F5002608A2007508A6002308F500270855
:101C5800A3007508A700F5017308A800A9012908C1
:101C6800AB0074082802AA00031CAB032B08803AB7
:101C7800FF0080307F02031D432E1A302A02031C06
:101C8800462E472E802E8312031323082204210494
:101C98002004031D502E522E0130532E0030F50023
:101CA8000030A3000030A2000030A1000030A000E6
:101CB8007308F400862E751C622E632E6C2E750830
:101CC80083120313A8000310280C0138F5006E2EA8
:101CD8000310F50C83120313201C732E742E752E1B
:101CE800F5170130A800230DA30CA20CA10CA00C21
:101CF800A80B772E0130F40773087402031C852E95
:101D0800862E5F2E721B892E8A2ED52E7408031DEF
:101D18008E2E8F2E9A2E003083120313A3000030CC
:101D2800A2000030A1000030A000FF2F831203138F
:101D38002408A007250803110318013E0319A52E3E
:101D4800A107260803110318013E0319AC2EA207A8
:101D5800270803110318013E0319B32EA307231CF8
:101D6800B62EB72E8B2F751CBA2EBB2EC22E750819
:101D7800A8000310280C0138F500C42E0310F50C38
:101D8800201CC72EC82EC92EF5170130A800230D18
:101D9800A30CA20CA10CA00CA80BCB2E0130F407AD
:101DA8008B2F831203132308803AFF002708803AF9
:101DB8007F02031DE92E26082202031DE92E2508AD
:101DC8002102031DE92E240820020318EC2EED2E13
:101DD800442FFF30A800FF30A900FF30AA00FF30D1
:101DE800AB002408AC002508AD002608AE00270883
:101DF800AF002008AC022108031C210F042F052F77
:101E0800AD022208031C220F0A2F0B2FAE02230853
:101E1800031C230F102F112FAF022C08A8072D0821
:101E280003182D0F182F192FA9072E0803182E0F86
:101E38001E2F1F2FAA072F0803182F0AAB072B08DE
:101E4800A3002A08A2002908A1002808A0008030C1
:101E5800F2067503FF3AF5007508031D342F352F78
:101E6800522F0130A007003003180130A1070030BD
:101E780003180130A207003003180130A307522FBE
:101E88002408A0022508031C250FA1022608031C0C
:101E9800260FA2022708031C270FA30223082204E7
:101EA80021042004031D592F5A2F872F7508031D5D
:101EB8005E2F5F2F872F0030A3000030A200003074
:101EC800A1000030A000FF2F0130A8000310A00DD2
:101ED800A10DA20DA30DA80B6A2FF51F742F752F46
:101EE800762F2014751C792F7A2F7E2F0314750DE9
:101EF800F500802F0310F50D74080319842F852F22
:101F0800872F0130F402A21F8A2F8B2F682FF3012D
:101F1800F51F8F2F902F9E2F75087F390319952F46
:101F2800962F992F0130F3009E2F201C9C2F9D2F58
:101F38009E2F962F73080319A22FA32FD52F013098
:101F4800A007003003180130A10700300318013042
:101F5800A207003003180130A307231CB42FB52FA4
:101F6800D52F2008A8002108A9002208AA002308C4
:101F7800AB000130AC002B0DAB0CAA0CA90CA80CC3
:101F8800AC0BBF2F2B08A3002A08A2002908A10028
:101F98002808A000740A0319D22FD32FD52F013097
:101FA800F407740A0319D92FDA2FDF2F7408031DD9
:101FB800DE2FDF2FED2F0030A3000030A20000300D
:101FC800A1000030A0007408031DEB2FEC2FED2FAB
:101FD800F201741CF02FF12FF32FA217F52F7F3089
:101FE800A2057408A8000310280CA300F21FFD2FF7
:101FF800FE2FFF2FA3170800503472346F34673454
:10200800723461346D3443346F346D3470346C34ED
:10201800653474346534643400345734613473344B
:10202800683469346E3467342034503472346F3411
:102038006734723461346D34733400345734613426
:102048007334683469346E34673420344D34613401
:102058006334683469346E3465340034523465341A
:102068006D346F3476346534203443346C346F34D3
:102078007434683465347334003450346C346534E3
:10208800613473346534203463346C346F3473349E
:102098006534203400345034723465347334733406
:1020A80020344B34653479343534203474346F3407
:1020B8000034573461347434653472345F344C34CA
:1020C8006534763465346C343A34003444346F34CF
:1020D8006F34723420346934733420344F3470349C
:1020E80065346E3400345034723465347334733468
:1020F80020345334773469347434633468340034A6
:102108005334573435343A34203453345434413406
:10211800523454342034003450346F3477346534B6
:10212800723469346E34673420344F346E3400347A
:102138005334573436343A342034503441345534D7
:1021480053344534003441347134753461342034A7
:10215800533474346F347234653400345334743403
:10216800613469346E3420345734613473346834DC
:102178000034453463346F3463346F3474347434E6
:102188006F346E347334003442346534643420342C
:1021980053346834653465347434733400345334D8
:1021A800573435343A342034533474346134723407
:1021B80074340034443465346C34693463346134C1
:1021C8007434653473340034573461347334683488
:1021D80020346F346E346C347934003452346934BA
:1021E8006E34733465342B344434723479340034A7
:1021F8005334573436343A342034533474346F34C7
:1022080070340034463475346E346334743469344D
:102218006F346E34003444347234793420344F349B
:102228006E346C347934003450346F347734653418
:10223800723420344F346E34003457346F346F3472
:102248006C3465346E34733400344D34653464341E
:10225800693475346D3400345734683469347434EF
:10226800653473340034503472346F3467343A341C
:102278000034523469346E34733465340034443471
:10228800613469346C3479340034483465346134E9
:10229800763479340034543469346D346534003418
:1022A80048346934673468340034533470346934DA
:1022B8006E3400344134753474346F34003444342B
:1022C8006F346F34723400344C346F3477340034E4
:1022D8004D34613478340034FF1B7A2983137F1816
:1022E80083170008840A0319FF0A08007F087F394A
:0C22F8008A000408840A0319FF0A82000F
:10294A00113401348316031306083F388600080041
:10295A00FA308316031392008C1483120313121194
:10296A000800831603138801091189100A168A11AF
:10297A0077260A168A110800F20101300A168A110E
:10298A0012250A168A110430F7003D30F600F60BBC
:10299A00CC2CF70BCC2CD12C0800F400F301741CBE
:1029AA00D72CD82CDA2C7208F3070310F20D031077
:1029BA00F40C7408031DE22CE32CD42C73080800D1
:1029CA007E088A007F0882000A168A11E5240A1600
:1029DA008A118000840A04087D0603190034FF0A5C
:1029EA000319FE0AE92C0A168A11B6240A168A1154
:1029FA000A168A11A7240A168A110A168A11AD2400
:102A0A000A168A118B170B178316031387100711DF
:102A1A0083120313871007110800F5007218162D88
:102A2A001A2D8312031309151D2D8312031309117D
:102A3A00750888008914A630F300F30B222D0000D4
:102A4A008312031389101B30F4009E30F300F30B3A
:102A5A002C2DF40B2C2D00000800433491344934FA
:102A6A009134DE34903430349134B2349034BD34FD
:102A7A00903421349134C8349034F23490340F3481
:102A8A009134E8349034A73490345E349134683405
:102A9A00913429349134543491346C3491343F3420
:102AAA00803083120313C7064B08A3004A08A2000A
:102ABA004908A1004808A0004708A7004608A60040
:102ACA004508A5004408A4000A128A15A8250A1672
:102ADA008A11831203132308C7002208C60021089B
:102AEA00C5002008C400080083120313A400A00133
:102AFA00A1017208F400F5017408A2007508A30088
:102B0A00241C882D892D8F2D2208A0070318A10ABD
:102B1A002308A10701300310A20DA30DFF3E031DD8
:102B2A00902D0310A40C2408031D9C2D9D2D852D8A
:102B3A002108F3002008F2000800F20183120313AF
:102B4A0022080A168A1112250A168A11C42DF201C0
:102B5A00F20A2108FF00200884000A168A1170214F
:102B6A000A168A110A168A1112250A168A110130C2
:102B7A0083120313A0070318A10A0030A1078312C6
:102B8A0003132108FF00200884000A168A11702105
:102B9A000A168A11003A031DD32DD42DAC2D080034
:102BAA00831203138C1CDA2DDB2D1B2E01308316A6
:102BBA000313C307003003180130C4070030031899
:102BCA000130C507003003180130C607203043061C
:102BDA004E300319440645044604031DF52DF62D0F
:102BEA00182E831203136C080319FC2DFD2D002ED9
:102BFA000130EC020E2E6C08031D042E052E0E2E3B
:102C0A006B080319092E0A2E0E2E0130EB023C30F6
:102C1A00EC00003083160313C6000030C5000030F4
:102C2A00C4000030C300831203138C1071088A0099
:102C3A00700E8300FE0E7E0E0900F200831203134B
:102C4A000608F3003F30F3057208031D2D2E2E2EC1
:102C5A00302E7308762E3F3073060319352E362E22
:102C6A00422E7B0803193A2E3B2E422EFB01730893
:102C7A0083160313C200FA01752E3F307306031937
:102C8A00472E482E5E2E7B08031D4C2E4D2E5E2E9F
:102C9A000130FA070B307A02031C542E552E752E7A
:102CAA0037307306031D5A2E5B2E752EFA019930A2
:102CBA00762E3F307306031D632E642E752E7B0815
:102CCA00031D682E692E752E0130FB000B307A0227
:102CDA000318702E712E752E831603134208762E52
:102CEA003F300800C330F700CD30F600F60B7B2EDC
:102CFA00F70B7B2EF20133300A168A1112250A16B7
:102D0A008A111B30F7009E30F600F60B8A2EF70B5D
:102D1A008A2E0000F20133300A168A1112250A1689
:102D2A008A11A630F600F60B982E0000F201333015
:102D3A000A168A1112250A168A11A32EA42E000039
:102D4A00F2013C300A168A1112250A168A11A63097
:102D5A00F600F60BAE2E0000F20101300A168A11B7
:102D6A0012250A168A110430F7003D30F600F60BD8
:102D7A00BC2EF70BBC2EC12EF2010C300A168A119A
:102D8A0012250A168A11A630F600F60BCA2E000082
:102D9A000800F701F51FD22ED32EDA2EF409F50911
:102DAA00F40A0319F50A0130F700F31FDD2EDE2EAF
:102DBA00E32EF209F309F20A0319F30A72087304FB
:102DCA000319E82EE92E162F0130F600F52E0130F0
:102DDA000310F20DF30DFF3E031DED2E0130F60731
:102DEA00F31FF82EF92EEC2E73087502031DFF2E21
:102DFA0072087402031C022F032F092F7208F402AF
:102E0A007308031CF503F50201300310F30CF20CEE
:102E1A00FF3E031D0A2F0130F602031D152F162F40
:102E2A00F92E770803191A2F1B2F202FF409F509F9
:102E3A00F40A0319F50A7508F3007408F200080089
:102E4A0083120313A101F31F2B2F2C2F332FF20907
:102E5A00F309F20A0319F30A0130A100F51F362F0C
:102E6A00372F3E2FF409F509F40A0319F50A013040
:102E7A00A106A201A301720873040319452F462F64
:102E8A007B2F0130A000522F01300310F20DF30DF9
:102E9A00FF3E031D4A2F0130A007F31F552F562F5F
:102EAA00492F01300310A20DA30DFF3E031D572F1A
:102EBA0073087502031D632F72087402031C662FC0
:102ECA00672F6E2F7208F4027308031CF503F502CC
:102EDA00221401300310F30CF20CFF3E031D6F2F76
:102EEA000130A002031D7A2F7B2F562F21080319C8
:102EFA007F2F802F852FA209A309A20A0319A30AEB
:102F0A002308F3002208F2000800031083120313B7
:102F1A00460D470DF7007708031D942F952F9E2F16
:102F2A000030C7000030C6000030C5000030C400C1
:102F3A00FF2F4408C8004508C9004608CA004708C8
:102F4A00CB001F300310CB0CCA0CC90CC80CFF3EB7
:102F5A00031DA72F4808F600C617FF30C405FF3027
:102F6A00C505FF30C6050030C7059630F702F71FC2
:102F7A00BF2FC02FD82F7708803A973E0318C62F45
:102F8A00C72FC82F952F01300310C70CC60CC50CCC
:102F9A00C40CFF3E031DC92F0130F707031DD62FAE
:102FAA00D72FC82FEF2F20307702031CDD2FDE2FFB
:102FBA00EA2F952F0130C8000310C40DC50DC60DA8
:102FCA00C70DC80BE12F0130F7027708031DEE2F5A
:102FDA00EF2FDF2F76080319F32FF42FFF2FC409E1
:102FEA00C509C609C709C40A0319C50A0319C60AC5
:062FFA000319C70A0800DC
:02400E00FB3F76
:00000001FF
